:100000000C942A000C9447000C9447000C94470071
:100010000C9447000C9447000C9447000C94470044
:100020000C9447000C9447000C9447000C94470034
:100030000C9447000C9447000C9447000C94470024
:100040000C9447000C9447000C9447000C94470014
:100050000C94470011241FBECFE5D8E0DEBFCDBF12
:1000600010E0A0E6B0E0E0E6F9E002C005900D92F5
:10007000AE36B107D9F720E0AEE6B0E001C01D9280
:10008000AE37B207E1F70E9460010C94AE040C9405
:100090000000BF92CF92DF92EF92FF920F931F93D7
:1000A000CF93DF9389B3BB24B394863009F0B12C8E
:1000B00089B3C1E0853009F0C0E099B381E09330A5
:1000C00009F080E0B11005C0C11103C0882309F414
:1000D00045C0D0E0082F10E06B2D70E080E090E08C
:1000E0000E948A036B017C01CE01880F991FBC011D
:1000F000990F880B990B0E948C039B01AC01C701DF
:10010000B6010E9471026B017C01C801880F991F22
:10011000800F911FBC01990F880B990B0E948C03D3
:100120009B01AC01C701B6010E9471026B017C0109
:10013000CB0DD11DC8018C0F9D1FBC01990F880BE1
:10014000990B0E948C039B01AC01C701B6010E9470
:10015000E202562F472F382F292F04C050E040E0ED
:100160003FE723E4652F742F832F922FDF91CF91E8
:100170001F910F91FF90EF90DF90CF90BF90089567
:100180004F925F926F927F928F929F92AF92BF92A7
:10019000CF92DF92EF92FF92CF93DF9300D000D007
:1001A000CDB7DEB70E9470026B017C0160917200D6
:1001B0007091730080917400909175000E948C037F
:1001C000A70196010E9471020E9454032B013C0179
:1001D0006093720070937300809374009093750025
:1001E000C701B6010E9454034B015C0160936E008D
:1001F00070936F00809370009093710020916A005B
:1002000030916B0040916C0050916D00C701B601B8
:100210000E94410469837A838B839C83C301B2016A
:100220000E948C0320916600309167004091680025
:10023000509169000E9441049B01AC0169817A815F
:100240008B819C810E9471022B013C01C501B4018C
:100250000E948C039B01AC01C701B6010E94700291
:1002600020916200309163004091640050916500DC
:100270000E9441049B01AC01C301B2010E947102C2
:100280000F900F900F900F90DF91CF91FF90EF9014
:10029000DF90CF90BF90AF909F908F907F906F90A6
:1002A0005F904F900895882351F090E0EFE9FFE0D0
:1002B0003197F1F700C000009F5F9813F7CF0895C2
:1002C0000E94650288EF8ABB412C512C32010F2E0F
:1002D000F2E1AF2EF02D14E601E10F2EF1E2BF2E78
:1002E000F02DC0E6D0E00E9449006B017C0120E0C7
:1002F00030E04FE753E40E94DD02882349F0C092CA
:100300007A00D0927B00E0927C00F0927D0008C0E1
:1003100040927A0050927B0060927C0070927D0047
:1003200060917A0070917B0080917C0090917D00BB
:1003300020E030E040E050E40E94C0006B017C010E
:1003400060937600709377008093780090937900A3
:1003500020E030E048E453E40E943C0418166CF4BA
:1003600080E090E0A8E4B3E4809376009093770077
:10037000A0937800B093790032C020E030E048E4E8
:1003800053ECC701B6010E94DD0288236CF480E0C3
:1003900090E0A8E4B3EC8093760090937700A0936C
:1003A0007800B09379005DC0C0907600D09077005F
:1003B000E0907800F090790020E030E0A901C701DA
:1003C000B6010E943C0418168CF520E030E048ECA1
:1003D00052E4C701B6010E943C041816A4F4B5BA51
:1003E00020E030E048EC52E46091760070917700B4
:1003F00080917800909179000E9470020E945B03C6
:1004000063BD1CBF13C005BB2091760030917700FF
:10041000409178005091790060E070E088EC92E4BF
:100420000E9470020E945B0363BD1CBFC0907600F7
:10043000D0907700E0907800F090790020E030E0F4
:10044000A901C701B6010E94DD02181694F120E04F
:1004500030E048EC52ECC701B6010E94DD0288236F
:10046000ACF4A5BA20E030E048EC52E460917600AC
:100470007091770080917800909179000E947102CC
:1004800090580E945B036CBF13BD13C005BB20E0F6
:1004900030E048EC52E460917600709177008091F2
:1004A0007800909179000E9471020E945B036CBFFA
:1004B00013BD88810E94530140907A0050907B00C8
:1004C00060907C0070907D000ECF83B78C6683BFF8
:1004D00085B58E6685BD8FEF84BB8F9ABB9A0895D4
:1004E0005058BB27AA270E9488020C9402040E943D
:1004F000F40338F00E94FB0320F039F49F3F19F415
:1005000026F40C94F1030EF4E095E7FB0C94EB0356
:10051000E92F0E94130458F3BA1762077307840780
:10052000950720F079F4A6F50C9435040EF4E095C7
:100530000B2EBA2FA02D0B01B90190010C01CA019D
:10054000A0011124FF27591B99F0593F50F4503E48
:1005500068F11A16F040A22F232F342F4427585F3A
:10056000F3CF469537952795A795F0405395C9F752
:100570007EF41F16BA0B620B730B840BBAF091500A
:10058000A1F0FF0FBB1F661F771F881FC2F70EC0A9
:10059000BA0F621F731F841F48F48795779567957C
:1005A000B795F7959E3F08F0B0CF9395880F08F068
:1005B0009927EE0F9795879508950E94C70308F431
:1005C00081E008950E94F6020C9402040E94FB034D
:1005D00058F00E94F40340F029F45F3F29F00C9496
:1005E000EB0351110C9436040C94F1030E94130494
:1005F00068F39923B1F3552391F3951B550BBB2752
:10060000AA2762177307840738F09F5F5F4F220F96
:10061000331F441FAA1FA9F335D00E2E3AF0E0E88D
:1006200032D091505040E695001CCAF72BD0FE2FD7
:1006300029D0660F771F881FBB1F2617370748076B
:10064000AB07B0E809F0BB0B802DBF01FF27935823
:100650005F4F3AF09E3F510578F00C94EB030C94F9
:1006600036045F3FE4F3983ED4F38695779567951B
:10067000B795F7959F5FC9F7880F911D9695879558
:1006800097F90895E1E0660F771F881FBB1F621777
:1006900073078407BA0720F0621B730B840BBA0B35
:1006A000EE1F88F7E09508950E945B036894B111EE
:1006B0000C94360408950E941B0488F09F5798F00C
:1006C000B92F9927B751B0F0E1F0660F771F881F57
:1006D000991F1AF0BA95C9F714C0B13091F00E9471
:1006E0003504B1E008950C943504672F782F8827DE
:1006F000B85F39F0B93FCCF3869577956795B39598
:10070000D9F73EF490958095709561957F4F8F4F06
:100710009F4F0895E89409C097FB3EF4909580950B
:10072000709561957F4F8F4F9F4F9923A9F0F92FB7
:1007300096E9BB279395F695879577956795B79535
:10074000F111F8CFFAF4BB0F11F460FF1BC06F5F1B
:100750007F4F8F4F9F4F16C0882311F096E911C02D
:10076000772321F09EE8872F762F05C0662371F04E
:1007700096E8862F70E060E02AF09A95660F771F62
:10078000881FDAF7880F9695879597F90895990F3E
:100790000008550FAA0BE0E8FEEF16161706E8074B
:1007A000F907C0F012161306E407F50798F0621B6C
:1007B000730B840B950B39F40A2661F0232B242B41
:1007C000252B21F408950A2609F4A140A6958FEF60
:1007D000811D811D089597F99F6780E870E060E0B2
:1007E00008959FEF80EC089500240A9416161706CA
:1007F00018060906089500240A9412161306140612
:1008000005060895092E0394000C11F4882352F074
:10081000BB0F40F4BF2B11F460FF04C06F5F7F4F2C
:100820008F4F9F4F089557FD9058440F551F59F013
:100830005F3F71F04795880F97FB991F61F09F3FCD
:1008400079F087950895121613061406551FF2CFF6
:100850004695F1DF08C0161617061806991FF1CF46
:1008600086957105610508940895E894BB2766276D
:100870007727CB0197F908950E94C70308F48FEFFB
:1008800008950E9454040C9402040E94F40338F06A
:100890000E94FB0320F0952311F00C94EB030C94C1
:1008A000F10311240C9436040E94130470F3959FF5
:1008B000C1F3950F50E0551F629FF001729FBB2757
:1008C000F00DB11D639FAA27F00DB11DAA1F649FF3
:1008D0006627B00DA11D661F829F2227B00DA11DA6
:1008E000621F739FB00DA11D621F839FA00D611D2C
:1008F000221F749F3327A00D611D231F849F600D4D
:10090000211D822F762F6A2F11249F5750409AF075
:10091000F1F088234AF0EE0FFF1FBB1F661F771F01
:10092000881F91505040A9F79E3F510580F00C94CC
:10093000EB030C9436045F3FE4F3983ED4F38695C2
:1009400077956795B795F795E7959F5FC1F7FE2B6C
:10095000880F911D9695879597F90895F894FFCF84
:0E0960000A00ACAD8F417DB81D44E4E3544362
:00000001FF
